03/202610000486831403SON PESOS CUATRO MILLONES OCHOCIENTOS SESENTA Y OC2406030-69200041-9Nakel S.A.                    Hipolito Yrigoyen 3541   Comodoro Riv9000    00000000000
000001815002/03/2026000100067241 001623300000000304351228000011413171000-000000-030-70797129-7ESPERT SA                     ruta nacional 2 0             BUENOS AIRES        0       02
000001815102/03/2026000100067242 000208845323000170426769000002130335000-000000-030-67742154-8TABACALERA SARANDI S.A.       SALTO 165 SARANDI 0           BUENOS AIRES        3000    02
000001815202/03/2026000100067243 000407806336000328876077000008221902000-000000-030-68901099-3BENEVIA S.R.L                 COLECTORA PANAMERICANA OESTE 3BUENOS AIRES        3000    02
000001815302/03/2026000100067244 000174868963000141229216000002824584000-000000-030-61697108-1CANNON PUNTANA S.A.           J.SALGUERO N§550 0            CALETA  OLIVIA      9011    20
000001815402/03/2026000100067245 000787964799000635455485000007943194000-000000-030-70889578-0BAGLEY ARGENTINA S.A.         PANAM.KM 31 Y ROT.SASTRE 1617 CALETA  OLIVIA      9011    20
000001815502/03/2026000100067246 001401460637001107874017000011078740000-000000-030-50279317-5ARCOR S.A.I.C.                RUTA PROVINCIAL 191 KM 4,5 0  BUENOS AIRES        3000    02
000001815602/03/2026000100067249 000070362228000058150602000000726883000-000000-030-69098835-2CEREALKO S.A                  AVENIDA CABILDO 1547 8 30     BUENOS AIRES        3000    02
000001815702/03/2026000100067250 000074442284000060034100000000750426000-000000-030-50116964-8HOJALMAR S.A.                 BLANCO ENCALADA 3357 LANUS ESTBUENOS AIRES        0       02
000001815802/03/2026000100067251 001790038868001443579732000018044747000-000000-030-50111341-3LA DELICIA FELIPE FORT SA     GASCON 329 0                  BUENOS AIRES        3000    02
000001815902/03/2026000100067256 000559877300000462708514000003470314000-000000-030-71762021-2MERCADO SOCIAL SRL            PRESIDENTE PERON 2875         COMODORO RIVADAVIA  9000    07
000001816003/03/2026000100067268 000387699821000312661146000006253223000-000000-030-50795084-8MOLINO CAŃUELAS SACIFIA       KENNEDY 160 0                 CALETA  OLIVIA      9011    20
000001816103/03/2026000100067273 002231769159001799813836000013498604000-000000-030-65831333-5FERRERO ARGENTINA S.A.        DRAGONES 2486 0               BUENOS AIRES        0       02
000001816204/03/2026000100067274 000897771398000724009191000014480184000-000000-030-53774574-2CABRALES S.A.                 RIVADAVIA 3171 0              MAR DEL PLATA       7600    02
000001816304/03/2026000100067275 000369482942000297970115000005959402000-000000-030-64476137-8ALIMENT.MONTE CRISTO SRL      AVDA.SAN MARTIN 3621 0        BUENOS AIRES        0       02
000001816404/03/2026000100067278 000113794450000094045000000003526688000-000000-033-71439940-9TYH TABACOS S.A               VIEYTES 1801                  CAPITAL FEDERAL     9011    01
000001816504/03/2026000100067280 000189418803000156544464000001565445000-000000-030-71229937-8SMINT SA                      MAZZA 2312 1                  BUENOS AIRES        3000    02
000001816604/03/2026000100067281 000248527644000168575126000003371503000-000000-030-62232429-2DELLEPIANE SAN LUIS S.A       AV.DE MAYO 666 8§PISO 0       CALETA  OLIVIA      9011    20
000001816704/03/2026000100067282 001356387172001093860623000008203955000-000000-030-50406520-7AKAPOL S.A.                   CALLE 65 N| 5920 0            CALETA  OLIVIA      9011    20
000001816806/03/2026000100067288 002866949805002312055620000028900695000-000000-030-51565826-9DIELO S.A.                    BALBASTRO 5540 0              CALETA  OLIVIA      9011    20
000001816909/03/2026000100067313 001662392148001348736242000026974725000-000000-030-70733897-7IMPORTADORA SUDAMERICANA S.R.LAv.JUAN de GARAY 3731/41 0    CALETA  OLIVIA      9011    20
000001817009/03/2026000100067314 000166303854000137441201000002748824000-000000-030-70222959-2GENERAC TECHNOLOGY MANAGEMENT lavalle 1675 piso 7 dpto 2 0  BUENOS AIRES        3000    02
000001817109/03/2026000100067318 000085080232000067257031000000672570000-000000-030-50279317-5ARCOR S.A.I.C.                RUTA PROVINCIAL 191 KM 4,5 0  BUENOS AIRES        3000    02
000001817209/03/2026000100067319 000510264761000411503839000005143798000-000000-030-70889578-0BAGLEY ARGENTINA S.A.         PANAM.KM 31 Y ROT.SASTRE 1617 CALETA  OLIVIA      9011    20
000001817309/03/2026000100067320 000056490451000045556816000000341676000-000000-030-50183535-4ESTAB. LAS MARIAS SACIFA      IRALA 2021 0                  BUENOS AIRES        3000    02
000001817410/03/2026000100067326 001085739072000858291757000006437188000-000000-030-50054262-0MONDELEZ ARGENTINA S.A        KM.48500 COL.OESTE B1625HEP ESBUENOS AIRES        3000    02
000001817510/03/2026000100067331 000735204839000592907125000004446803000-000000-030-50183535-4ESTAB. LAS MARIAS SACIFA      IRALA 2021 0                  BUENOS AIRES        3000    02
000001817610/03/2026000100067332 000191738865000155082160000001938527000-000000-030-67742154-8TABACALERA SARANDI S.A.       SALTO 165 SARANDI 0           BUENOS AIRES        3000    02
000001817710/03/2026000100067333 000323575637000238856132000002985702000-000000-030-61375512-4CEPAS ARGENTINAS S.A.         MAIPU 171 0                   AVELLANEDA                  02
000001817810/03/2026000100067334 000219005551000176617380000004415435000-000000-033-70733811-9GUIALEMAR S.R.L.              AV.RIVADAVIA 9096 PISO 1° OF.ACAPITAL FEDERAL     3000    02
000001817910/03/2026000100067335 000600454111000484236927000003631777000-000000-030-65831333-5FERRERO ARGENTINA S.A.        DRAGONES 2486 0               BUENOS AIRES        0       02
000001818010/03/2026000100067336 000317982227000256437278000001923280000-000000-030-71137523-2PILARES COMPAŃIA ALIMENTICIA SAV. PTE. FRONDIZI 2911        PILAR               0       02
000001818110/03/2026000100067337 000759054485000612140714000015303518000-000000-030-71042294-6CONURBANO DISTRIBUCION S.A    HIPOLITO YRIGOYEN 5384 0      COMODORO RIVADAVIA  9000    07
000001818210/03/2026000100067339 000489903042000404878548000008097571000-000000-030-56922345-4KOPELCO S.A.                  HEREDIA 1161 0                SAN MARTIN          0       02
000001818310/03/2026000100067340 000967980730000760624859000005704686000-000000-030-50054262-0MONDELEZ ARGENTINA S.A        KM.48500 COL.OESTE B1625HEP ESBUENOS AIRES        3000    02
000001818410/03/2026000100067346 000029940912000024145897000000482918000-000000-030-50795084-8MOLINO CAŃUELAS SACIFIA       KENNEDY 160 0                 CALETA  OLIVIA      9011    20
000001818510/03/2026000100067347 000440345395000285321000000010699538000-000000-030-70756816-6TABES S.A                     AV.R.DURAŃONA 255             SALTA               4400    09
000001818611/03/2026000100067349 000038234326000024590521000000491810000-000000-030-62232429-2DELLEPIANE SAN LUIS S.A       AV.DE MAYO 666 8§PISO 0       CALETA  OLIVIA      9011    20
000001818711/03/2026000100067352 002973451412002350554045000017629155000-000000-030-50054262-0MONDELEZ ARGENTINA S.A        KM.48500 COL.OESTE B1625HEP ESBUENOS AIRES        3000    02
000001818812/03/2026000100067356 000065086270000043335731000000541697000-000000-030-50415535-4FRATELLI BRANCA DEST. S.A     USPALLATA 3046/60 0           CALETA  OLIVIA      9011    20
000001818912/03/2026000100067359 001468867260001184570371000023691407000-000000-030-50795084-8MOLINO CAŃUELAS SACIFIA       KENNEDY 160 0                 CALETA  OLIVIA      9011    20
000001819012/03/2026000100067361 001960752057001581251661000019765646000-000000-030-70889578-0BAGLEY ARGENTINA S.A.         PANAM.KM 31 Y ROT.SASTRE 1617 CALETA  OLIVIA      9011    20
000001819112/03/2026000100067362 004460469869003526061905000035260619000-000000-030-50279317-5ARCOR S.A.I.C.                RUTA PROVINCIAL 191 KM 4,5 0  BUENOS AIRES        3000    02
000001819212/03/2026000100067363 002934047652002366167458000029577093000-000000-030-50111341-3LA DELICIA FELIPE FORT SA     GASCON 329 0                  BUENOS AIRES        3000    02
000001819312/03/2026000100067364 001208720080000974774259000007310807000-000000-030-50406520-7AKAPOL S.A.                   CALLE 65 N| 5920 0            CALETA  OLIVIA      9011    20
000001819412/03/2026000100067365 000381326040000307521000000006150420000-000000-030-50121458-9BONAFIDE S.A.U                RUTA 8 KM 17800 0 0           BUENOS AIRES        3000    02
000001819513/03/2026000100067366 000286031488000230670554000001730029000-000000-030-50183535-4ESTAB. LAS MARIAS SACIFA      IRALA 2021 0                  BUENOS AIRES        3000    02
000001819613/03/2026000100067369 008606358336006940611559000086757644000-000000-030-50111341-3LA DELICIA FELIPE FORT SA     GASCON 329 0                  BUENOS AIRES        3000    02
000001819713/03/2026000100067370 000223977810000180627266000003612545000-000000-130-52719611-2LA RURAL VIŃEDOS Y BODEGAS S.AAV.RIVADAVIA 413 0 8          CAPITAL FEDERAL     3000    02
