04/202600000904972767SON PESOS 9.049.727,67240603                           30-69200041-9Nakel SA                      Av. Hipólito Yrigoyen 3541    Comodoro Rivada00000000000
000000006001/04/2026000100000001 002070000000003240820616000040360258000-000000-030-51565826-9DIELO S.A.                                                                              00
000000006201/04/2026000100000002 006192429897005024210869000037591582000-000000-030-65831333-5FERRERO ARGENTINA SA          Julian Aguero 2830            Vicente Lopez       B1605   00
000000006301/04/2026000100000003 000216697862000187245000000006571688000-000000-033-71439940-9TYH TABACOS SA                Ruta Provincial 36 km 37.5    Berazategui         1884    02
000000006901/04/2026000100000004 002028262340001616049673000016040497000-000000-030-50279317-5ARCOR S.A.I.C                 Ruta provincial 191 KM 4.5    Buenos Aires        3000    02
000000007001/04/2026000100000005 002460815607002037447293000025318091000-000000-030-70889578-0BAGLEY ARGENTINA S.A.         Moreno 877                    Ciudad Autonoma de BC1091AAK00
000000038306/04/2026000100000006 002559561422002035004176000015172531000-000000-030-50054262-0MONDELEZ ARGENTINA S.A.       Colectora Panamericana Oeste 1San Isidro          B1607EEV02
000000038406/04/2026000100000007 001559561505002034993077000015172448000-000000-030-50054262-0MONDELEZ ARGENTINA S.A.       Colectora Panamericana Oeste 1San Isidro          B1607EEV02
000000038606/04/2026000100000008 000538544674000436880060000003186600000-000000-030-50406520-7AKAPOL S.A.                   Calle 65 5920                 Villa Ballester             02
000000038806/04/2026000100000009 000374787159000308659100000002224943000-000000-033-70725983-9LA DOLCE S.R.L                Avda. Directorio 5961         Ciudad Autónoma de BC1440ASY02
000000038906/04/2026000100000010 000516581105000347066600000012564998000-000000-030-70756816-6TABES SA                      Av R. Durañona 255            Salta                       17
000000039006/04/2026000100000011 000447654843000380448378000005526726000-000000-030-70896864-8TOSTEX S.A                    Av Caseros 54                                             00
000000039106/04/2026000100000012 000237184818000197855078000004646377000-000000-030-59797159-8CELULOSA CAMPANA S.A.         Cerrito 1070 Piso 9           Ciudad Autonoma de BC1010AAV00
000000039206/04/2026000100000013 002002460593001692780346000033615607000-000000-030-50121458-9BONAFIDE S.A.I.C              Ingeniero Enrique Butty 220 PiCiudad Autonoma de BC1001AFB00
000000039506/04/2026000100000014 000247936128000225178299000004263566000-000000-030-50091427-7LEDVANCE S.A.                 Francisco Narciso de Laprida 3Villa Martelli      B1603AAA02
000000039606/04/2026000100000015 000007403842000007403842000000000000000-000000-030-70733897-7IMPORTADORA SUDAMERICANA SRL  Lavalle 1447 - piso 4         Capital Federal             00
000000040106/04/2026000100000016 000145082444000147742550000002714851000-000000-030-68544117-5TRADING INTERNACIONAL S.A.    Sarmiento 991 - piso 7        Rosario                     00
000000054307/04/2026000100000017 001440040044001147346640000011353466000-000000-030-50279317-5ARCOR S.A.I.C                 Ruta provincial 191 KM 4.5    Buenos Aires        3000    02
000000054407/04/2026000100000018 006250738724004955222240000037074167000-000000-030-50054262-0MONDELEZ ARGENTINA S.A.       Colectora Panamericana Oeste 1San Isidro          B1607EEV02
000000054507/04/2026000100000019 001508728000001256700000000024894000000-000000-033-52190283-9ALEXVIAN S.A.                 M. Leguizamón 1235            Buenos Aires        1440    02
000000055007/04/2026000100000020 000038197463000030918834000000141891000-000000-030-50183535-4ESTABLECIMIENTO LAS MARIAS S.ADaniel Cerri 1050             Buenos Aires        CF1164  00
000000055107/04/2026000100000021 000494551228000413224458000010030611000-000000-033-70733811-9GUIALEMAR S.R.L                                             Buenos Aires        C1407IIA00
000000055507/04/2026000100000022 000156312596000133531842000003038296000-000000-030-71518568-3LEHIA S.R.L                   Bauness 2150 7mo. Piso Depto ACiudad Autónoma de B        00
000000055607/04/2026000100000023 000832937175000395840436000014394016000-000000-030-70797129-7ESPERT S.A.                   Ruta Nacional 2 km 37.5       Berazategui         B1893AAA02
000000070608/04/2026000100000024 001685430644001395677551000017295969000-000000-030-70889578-0BAGLEY ARGENTINA S.A.         Moreno 877                    Ciudad Autonoma de BC1091AAK00
000000070708/04/2026000100000025 001513871181001206176238000011941762000-000000-030-50279317-5ARCOR S.A.I.C                 Ruta provincial 191 KM 4.5    Buenos Aires        3000    02
000000070808/04/2026000100000026 000163825562000136466580000003111665000-000000-030-71042294-6CONURBANO DISTRIBUCION S.A.                                                             00
000000071308/04/2026000100000027 004212693450003417933833000025544504000-000000-030-65831333-5FERRERO ARGENTINA SA          Julian Aguero 2830            Vicente Lopez       B1605   00
000000097909/04/2026000100000028 000151088339000127804959000001447562000-000000-030-71604642-3PLANETA BISCUITS S.A.         Calle 8 - Parque Industrial GeBatán               7601    02
000000098009/04/2026000100000029 000117685260000097497716000001709954000-000000-030-61697108-1CANNON PUNTANA S.A.           Jerónimo Salguero 550         Ciudad Autonoma de BC1177AEJ00
000000098109/04/2026000100000030 000231513450000192354542000003607091000-000000-030-52719611-2LA RURAL VIÑEDOS Y BODEGAS S.AGeneral Mosconi 615 - Parque IBuenos Aires        1619    02
000000098309/04/2026000100000031 001615195976001310430812000009738231000-000000-030-50406520-7AKAPOL S.A.                   Calle 65 5920                 Villa Ballester             02
000000116810/04/2026000100000032 000010443048000008421813000000000000000-000000-030-50795084-8MOLINO CAÑUELAS SACIFIA                                                                 00
000000117510/04/2026000100000033 001722187335001420999432000028179989000-000000-030-70733897-7IMPORTADORA SUDAMERICANA SRL  Lavalle 1447 - piso 4         Capital Federal             00
000000117710/04/2026000100000034 000002662483000047514311000021544332000-000000-030-51565826-9DIELO S.A.                                                                              00
000000118010/04/2026000100000035 000026645407000060286177000018583636000-000000-030-50111341-3LA DELICIA FELIPE FORT S.A.   Gascón 329                    Ciudad Autonoma de BC1181   02
000000118310/04/2026000100000036 014600000000011863151480000110307835000-000000-030-65831333-5FERRERO ARGENTINA SA          Julian Aguero 2830            Vicente Lopez       B1605   00
000000118410/04/2026000100000037 000799841058000648885240000004776639000-000000-030-50406520-7AKAPOL S.A.                   Calle 65 5920                 Villa Ballester             02
000000118510/04/2026000100000038 000074211296000051444432000000493055000-000000-030-50415535-4FRATELLI BRANCA DEST SA                                                                 00
000000118610/04/2026000100000039 000031954016000026650434000000293009000-000000-030-50298811-1SANFORD SACIFI Y A            Lago García 4470              Esteban Echeverría  1839    02
000000118710/04/2026000100000040 001267186250001042704732000025767618000-000000-030-51613945-1GEORGALOS HNOS SAICA                                                                    00
000000118810/04/2026000100000041 000226375102000167635370000001945442000-000000-030-67742154-8TABACALERA SARANDI SA                                                                   00
000000158913/04/2026000100000042 000000391927000000323907000000000000000-000000-030-70222959-2GENERAC TECHNOLOGY MANAGEMENT                                                           00
000000159013/04/2026000100000043 003948858601003270152050000040726901000-000000-030-70889578-0BAGLEY ARGENTINA S.A.         Moreno 877                    Ciudad Autonoma de BC1091AAK00
000000159113/04/2026000100000044 005939427788004732516175000047205162000-000000-030-50279317-5ARCOR S.A.I.C                 Ruta provincial 191 KM 4.5    Buenos Aires        3000    02
000000159213/04/2026000100000045 000081899168000066791084000001369777000-000000-033-61746244-9DISLAC CHUBUT SRL                                                                       00
000000159313/04/2026000100000046 000375720427000312527022000006010540000-000000-030-64476137-8ALIMENTARIA MONTE CRISTO SRL                                                            00
000000159613/04/2026000100000047 000252127600000209533000000003950660000-000000-030-70731790-2PRO NOVELTIES SA                                                                        00
000000159913/04/2026000100000048 000313793246000277089434000027063295000-000000-030-70733897-7IMPORTADORA SUDAMERICANA SRL  Lavalle 1447 - piso 4         Capital Federal             00
000000160013/04/2026000100000049 000275639934000228225671000003243385000-000000-030-70805153-1OBLIMAR SA                                                                              00
000000160713/04/2026000100000050 000590471631000483796419000009435928000-000000-030-50121458-9BONAFIDE S.A.I.C              Ingeniero Enrique Butty 220 PiCiudad Autonoma de BC1001AFB00
000000160813/04/2026000100000051 000515454674000430716882000010467922000-000000-030-68901099-3BENEVIA SRL                   Reconquista 1088 Piso 9       Ciudad Autonoma de BC1003ABV00
000000160913/04/2026000100000052 000415824191000347718988000008392975000-000000-030-59797159-8CELULOSA CAMPANA S.A.         Cerrito 1070 Piso 9           Ciudad Autonoma de BC1010AAV00
000000161013/04/2026000100000053 000224026296000185404800000002167560000-000000-030-51565826-9DIELO S.A.                                                                              00
000000161513/04/2026000100000054 000217708603000182752170000003421522000-000000-030-70222959-2GENERAC TECHNOLOGY MANAGEMENT                                                           00
000000182414/04/2026000100000055 000023908435000020007194000000300270000-000000-030-71800459-0LOGIQUEN SA                                                                             00
000000208015/04/2026000100000056 000433371277000368292150000005344382000-000000-030-71804907-1TUNKIPOP ELABORADOS S.R.L     Calle 520 6980                Melchor Romero              02
000000208515/04/2026000100000057 000743610053000603261707000004434463000-000000-030-50406520-7AKAPOL S.A.                   Calle 65 5920                 Villa Ballester             02
000000209215/04/2026000100000058 000303743365000247806828000003537102000-000000-030-50351066-5PRODUCTORES DE YERBA MATE DE SAvda. San Martín Lote 7       Santo Pipó          3326    14
000000209815/04/2026000100000059 000536247970000452727248000016527272000-000000-030-71504424-9COSMOPOLITAN SA                                                                         00
000000210515/04/2026000100000060 001353875290000256603643000009172637000-000000-030-70797129-7ESPERT S.A.                   Ruta Nacional 2 km 37.5       Berazategui         B1893AAA02
000000211915/04/2026000100000061 000012111146000009767053000000000000000-000000-030-50183535-4ESTABLECIMIENTO LAS MARIAS S.ADaniel Cerri 1050             Buenos Aires        CF1164  00
000000219215/04/2026000100000062 000059658057000049282035000000466025000-000000-030-70889578-0BAGLEY ARGENTINA S.A.         Moreno 877                    Ciudad Autonoma de BC1091AAK00
000000221315/04/2026000100000063 000539972443000430161311000004181613000-000000-030-50279317-5ARCOR S.A.I.C                 Ruta provincial 191 KM 4.5    Buenos Aires        3000    02
000000239416/04/2026000100000064 001373411020001137276209000014065953000-000000-030-70889578-0BAGLEY ARGENTINA S.A.         Moreno 877                    Ciudad Autonoma de BC1091AAK00
000000239716/04/2026000100000065 002249457885001792083300000017800833000-000000-030-50279317-5ARCOR S.A.I.C                 Ruta provincial 191 KM 4.5    Buenos Aires        3000    02
000000240816/04/2026000100000066 001448425463001192119056000029802167000-000000-030-51613945-1GEORGALOS HNOS SAICA                                                                    00
000000241216/04/2026000100000067 003909402491003171855977000023698920000-000000-030-65831333-5FERRERO ARGENTINA SA          Julian Aguero 2830            Vicente Lopez       B1605   00
